{
  "_format": "hh-sol-artifact-1",
  "contractName": "Voting",
  "sourceName": "contracts/Voting.sol",
  "abi": [
    {
      "inputs": [
        {
          "internalType": "string[]",
          "name": "_candidateNames",
          "type": "string[]"
        }
      ],
      "stateMutability": "nonpayable",
      "type": "constructor"
    },
    {
      "anonymous": false,
      "inputs": [
        {
          "indexed": true,
          "internalType": "uint256",
          "name": "_candidateId",
          "type": "uint256"
        }
      ],
      "name": "VotedEvent",
      "type": "event"
    },
    {
      "inputs": [
        {
          "internalType": "uint256",
          "name": "",
          "type": "uint256"
        }
      ],
      "name": "candidates",
      "outputs": [
        {
          "internalType": "uint256",
          "name": "id",
          "type": "uint256"
        },
        {
          "internalType": "string",
          "name": "name",
          "type": "string"
        },
        {
          "internalType": "uint256",
          "name": "voteCount",
          "type": "uint256"
        }
      ],
      "stateMutability": "view",
      "type": "function"
    },
    {
      "inputs": [],
      "name": "candidatesCount",
      "outputs": [
        {
          "internalType": "uint256",
          "name": "",
          "type": "uint256"
        }
      ],
      "stateMutability": "view",
      "type": "function"
    },
    {
      "inputs": [],
      "name": "getCandidates",
      "outputs": [
        {
          "components": [
            {
              "internalType": "uint256",
              "name": "id",
              "type": "uint256"
            },
            {
              "internalType": "string",
              "name": "name",
              "type": "string"
            },
            {
              "internalType": "uint256",
              "name": "voteCount",
              "type": "uint256"
            }
          ],
          "internalType": "struct Voting.Candidate[]",
          "name": "",
          "type": "tuple[]"
        }
      ],
      "stateMutability": "view",
      "type": "function"
    },
    {
      "inputs": [
        {
          "internalType": "uint256",
          "name": "_candidateId",
          "type": "uint256"
        }
      ],
      "name": "vote",
      "outputs": [],
      "stateMutability": "nonpayable",
      "type": "function"
    },
    {
      "inputs": [
        {
          "internalType": "address",
          "name": "",
          "type": "address"
        }
      ],
      "name": "voters",
      "outputs": [
        {
          "internalType": "bool",
          "name": "",
          "type": "bool"
        }
      ],
      "stateMutability": "view",
      "type": "function"
    }
  ],
  "bytecode": "0x60806040523480156200001157600080fd5b506040516200130b3803806200130b833981810160405281019062000037919062000395565b60005b81518110156200008057620000728282815181106200005e576200005d620003e6565b5b60200260200101516200008860201b60201c565b80806001019150506200003a565b5050620007c3565b600260008154809291906200009d906200044e565b91905055506040518060600160405280600254815260200182815260200160008152506000806002548152602001908152602001600020600082015181600001556020820151816001019081620000f59190620006dc565b506040820151816002015590505050565b6000604051905090565b600080fd5b600080fd5b600080fd5b6000601f19601f8301169050919050565b7f4e487b7100000000000000000000000000000000000000000000000000000000600052604160045260246000fd5b6200016a826200011f565b810181811067ffffffffffffffff821117156200018c576200018b62000130565b5b80604052505050565b6000620001a162000106565b9050620001af82826200015f565b919050565b600067ffffffffffffffff821115620001d257620001d162000130565b5b602082029050602081019050919050565b600080fd5b600080fd5b600067ffffffffffffffff8211156200020b576200020a62000130565b5b62000216826200011f565b9050602081019050919050565b60005b838110156200024357808201518184015260208101905062000226565b60008484015250505050565b6000620002666200026084620001ed565b62000195565b905082815260208101848484011115620002855762000284620001e8565b5b6200029284828562000223565b509392505050565b600082601f830112620002b257620002b16200011a565b5b8151620002c48482602086016200024f565b91505092915050565b6000620002e4620002de84620001b4565b62000195565b905080838252602082019050602084028301858111156200030a5762000309620001e3565b5b835b818110156200035857805167ffffffffffffffff8111156200033357620003326200011a565b5b8086016200034289826200029a565b855260208501945050506020810190506200030c565b5050509392505050565b600082601f8301126200037a57620003796200011a565b5b81516200038c848260208601620002cd565b91505092915050565b600060208284031215620003ae57620003ad62000110565b5b600082015167ffffffffffffffff811115620003cf57620003ce62000115565b5b620003dd8482850162000362565b91505092915050565b7f4e487b7100000000000000000000000000000000000000000000000000000000600052603260045260246000fd5b7f4e487b7100000000000000000000000000000000000000000000000000000000600052601160045260246000fd5b6000819050919050565b60006200045b8262000444565b91507fffffffffffffffffffffffffffffffffffffffffffffffffffffffffffffffff820362000490576200048f62000415565b5b600182019050919050565b600081519050919050565b7f4e487b7100000000000000000000000000000000000000000000000000000000600052602260045260246000fd5b60006002820490506001821680620004ee57607f821691505b602082108103620005045762000503620004a6565b5b50919050565b60008190508160005260206000209050919050565b60006020601f8301049050919050565b600082821b905092915050565b6000600883026200056e7fffffffffffffffffffffffffffffffffffffffffffffffffffffffffffffffff826200052f565b6200057a86836200052f565b95508019841693508086168417925050509392505050565b6000819050919050565b6000620005bd620005b7620005b18462000444565b62000592565b62000444565b9050919050565b6000819050919050565b620005d9836200059c565b620005f1620005e882620005c4565b8484546200053c565b825550505050565b600090565b62000608620005f9565b62000615818484620005ce565b505050565b5b818110156200063d5762000631600082620005fe565b6001810190506200061b565b5050565b601f8211156200068c5762000656816200050a565b62000661846200051f565b8101602085101562000671578190505b6200068962000680856200051f565b8301826200061a565b50505b505050565b600082821c905092915050565b6000620006b16000198460080262000691565b1980831691505092915050565b6000620006cc83836200069e565b9150826002028217905092915050565b620006e7826200049b565b67ffffffffffffffff81111562000703576200070262000130565b5b6200070f8254620004d5565b6200071c82828562000641565b600060209050601f8311600181146200075457600084156200073f578287015190505b6200074b8582620006be565b865550620007bb565b601f19841662000764866200050a565b60005b828110156200078e5784890151825560018201915060208501945060208101905062000767565b86831015620007ae5784890151620007aa601f8916826200069e565b8355505b6001600288020188555050505b505050505050565b610b3880620007d36000396000f3fe608060405234801561001057600080fd5b50600436106100575760003560e01c80630121b93f1461005c57806306a49fce146100785780632d35a8a2146100965780633477ee2e146100b4578063a3ec138d146100e6575b600080fd5b6100766004803603810190610071919061054e565b610116565b005b6100806102a6565b60405161008d919061072c565b60405180910390f35b61009e61041a565b6040516100ab919061075d565b60405180910390f35b6100ce60048036038101906100c9919061054e565b610420565b6040516100dd939291906107c2565b60405180910390f35b61010060048036038101906100fb919061085e565b6104d2565b60405161010d91906108a6565b60405180910390f35b600160003373ffffffffffffffffffffffffffffffffffffffff1673ffffffffffffffffffffffffffffffffffffffff16815260200190815260200160002060009054906101000a900460ff16156101a3576040517f08c379a000000000000000000000000000000000000000000000000000000000815260040161019a9061090d565b60405180910390fd5b6000811180156101b557506002548111155b6101f4576040517f08c379a00000000000000000000000000000000000000000000000000000000081526004016101eb90610979565b60405180910390fd5b60018060003373ffffffffffffffffffffffffffffffffffffffff1673ffffffffffffffffffffffffffffffffffffffff16815260200190815260200160002060006101000a81548160ff0219169083151502179055506000808281526020019081526020016000206002016000815480929190610271906109c8565b9190505550807fe447c5464cb203c1da94b4db8588d3cbf313ce4a489122f6b88e87f465b2810e60405160405180910390a250565b6060600060025467ffffffffffffffff8111156102c6576102c5610a10565b5b6040519080825280602002602001820160405280156102ff57816020015b6102ec6104f2565b8152602001906001900390816102e45790505b5090506000600190505b6002548111610412576000808281526020019081526020016000206040518060600160405290816000820154815260200160018201805461034990610a6e565b80601f016020809104026020016040519081016040528092919081815260200182805461037590610a6e565b80156103c25780601f10610397576101008083540402835291602001916103c2565b820191906000526020600020905b8154815290600101906020018083116103a557829003601f168201915b50505050508152602001600282015481525050826001836103e39190610a9f565b815181106103f4576103f3610ad3565b5b6020026020010181905250808061040a906109c8565b915050610309565b508091505090565b60025481565b600060205280600052604060002060009150905080600001549080600101805461044990610a6e565b80601f016020809104026020016040519081016040528092919081815260200182805461047590610a6e565b80156104c25780601f10610497576101008083540402835291602001916104c2565b820191906000526020600020905b8154815290600101906020018083116104a557829003601f168201915b5050505050908060020154905083565b60016020528060005260406000206000915054906101000a900460ff1681565b60405180606001604052806000815260200160608152602001600081525090565b600080fd5b6000819050919050565b61052b81610518565b811461053657600080fd5b50565b60008135905061054881610522565b92915050565b60006020828403121561056457610563610513565b5b600061057284828501610539565b91505092915050565b600081519050919050565b600082825260208201905092915050565b6000819050602082019050919050565b6105b081610518565b82525050565b600081519050919050565b600082825260208201905092915050565b60005b838110156105f05780820151818401526020810190506105d5565b60008484015250505050565b6000601f19601f8301169050919050565b6000610618826105b6565b61062281856105c1565b93506106328185602086016105d2565b61063b816105fc565b840191505092915050565b600060608301600083015161065e60008601826105a7565b5060208301518482036020860152610676828261060d565b915050604083015161068b60408601826105a7565b508091505092915050565b60006106a28383610646565b905092915050565b6000602082019050919050565b60006106c28261057b565b6106cc8185610586565b9350836020820285016106de85610597565b8060005b8581101561071a57848403895281516106fb8582610696565b9450610706836106aa565b925060208a019950506001810190506106e2565b50829750879550505050505092915050565b6000602082019050818103600083015261074681846106b7565b905092915050565b61075781610518565b82525050565b6000602082019050610772600083018461074e565b92915050565b600082825260208201905092915050565b6000610794826105b6565b61079e8185610778565b93506107ae8185602086016105d2565b6107b7816105fc565b840191505092915050565b60006060820190506107d7600083018661074e565b81810360208301526107e98185610789565b90506107f8604083018461074e565b949350505050565b600073ffffffffffffffffffffffffffffffffffffffff82169050919050565b600061082b82610800565b9050919050565b61083b81610820565b811461084657600080fd5b50565b60008135905061085881610832565b92915050565b60006020828403121561087457610873610513565b5b600061088284828501610849565b91505092915050565b60008115159050919050565b6108a08161088b565b82525050565b60006020820190506108bb6000830184610897565b92915050565b7f596f75206861766520616c726561647920766f7465642e000000000000000000600082015250565b60006108f7601783610778565b9150610902826108c1565b602082019050919050565b60006020820190508181036000830152610926816108ea565b9050919050565b7f496e76616c69642063616e6469646174652049442e0000000000000000000000600082015250565b6000610963601583610778565b915061096e8261092d565b602082019050919050565b6000602082019050818103600083015261099281610956565b9050919050565b7f4e487b7100000000000000000000000000000000000000000000000000000000600052601160045260246000fd5b60006109d382610518565b91507fffffffffffffffffffffffffffffffffffffffffffffffffffffffffffffffff8203610a0557610a04610999565b5b600182019050919050565b7f4e487b7100000000000000000000000000000000000000000000000000000000600052604160045260246000fd5b7f4e487b7100000000000000000000000000000000000000000000000000000000600052602260045260246000fd5b60006002820490506001821680610a8657607f821691505b602082108103610a9957610a98610a3f565b5b50919050565b6000610aaa82610518565b9150610ab583610518565b9250828203905081811115610acd57610acc610999565b5b92915050565b7f4e487b7100000000000000000000000000000000000000000000000000000000600052603260045260246000fdfea264697066735822122099ee64a099e3a5a2ed35fb1753d776d4f4cbd10296332b557460dc30ac88983064736f6c63430008180033",
  "linkReferences": {},
  "deployedLinkReferences": {}
}